:020000040800F2
:1000000058070020890100088D0100088F010008B1
:10001000910100089301000895010008000000000C
:100020000000000000000000000000009701000830
:1000300099010008000000009B0100089D010008D4
:100040009F0100089F0100089F0100089F01000810
:100050009F0100089F0100089F0100089F01000800
:100060009F0100089F010008290200089F01000865
:100070009F0100089F0100089F0100089F010008E0
:100080009F0100089F0100089F0100089F010008D0
:100090009F0100089F0100089F01000865020008F9
:1000A0009F0100089F0100089F0100089F010008B0
:1000B000D50600089F0100089F0100089F01000865
:1000C0009F0100089F0100089F0100089F01000890
:1000D0009F010008310700089F0100089F010008E8
:1000E0009F0100089F0100089F01000800F002F82E
:1000F00000F03AF80AA090E8000C82448344AAF188
:100100000107DA4501D100F02FF8AFF2090EBAE885
:100110000F0013F0010F18BFFB1A43F0010318473B
:10012000B4080000D4080000103A24BF78C878C191
:10013000FAD8520724BF30C830C144BF04680C60ED
:10014000704700000023002400250026103A28BF35
:1001500078C1FBD8520728BF30C148BF0B60704739
:100160001FB51FBD10B510BD00F02FF81146FFF7E9
:10017000F7FF00F0D1FB00F04DF803B4FFF7F2FFFA
:1001800003BC00F017FB000008480047FEE7FEE74D
:10019000FEE7FEE7FEE7FEE7FEE7FEE7FEE7FEE737
:1001A00003480449044A054B70470000ED0000086D
:1001B0005801002058070020580300205803002051
:1001C00070477047704770477047754600F028F8D1
:1001D000AE4605006946534620F00700854618B034
:1001E00020B5FFF7DDFFBDE820404FF000064FF0DF
:1001F00000074FF000084FF0000B21F00701AC465C
:10020000ACE8C009ACE8C009ACE8C009ACE8C0097A
:100210008D4670470446AFF300802046FFF7ADFFE0
:1002200000487047F400002010B5142000F0E6FAF2
:100230000A48006850B900BF084800680028FBD091
:100240000748006840F0100005490860044800684D
:1002500040F010000249086010BD000010812142EA
:100260001404014010B5322000F0C8FA4D4800686F
:1002700000286AD14FF08040008820F001004FF044
:1002800080410880002088844748006848B90020E1
:10029000464908604649C1F8800142496831086012
:1002A00039E041480068012809D140490860002030
:1002B0003F49C1F880013B49683108602BE03A486A
:1002C000006802280BD10020384908600120384915
:1002D000C1F8800100203349683108601BE03248D2
:1002E000006803280AD10020304908603049C1F86D
:1002F000800101202B49683108600CE02A48006821
:10030000042808D10120294908602949C1F8800141
:1003100024496831086000202649087001202149DD
:100320009431086020480068401C052190FBF1F2E0
:1003300001FB12001C490860322000F05FFA00BF88
:10034000184800680028FBD024E01648001F006809
:10035000B0B900204FF0804188840846008840F002
:100360000100088000200F499431086000BF0D484B
:10037000001F00680028FAD001200E49087009E02B
:1003800008480838006828B900BF064808380068DF
:100390000028FAD08020084908604020086020200A
:1003A000086010BD1C812142280000209C012142D0
:1003B00000802142260000201404014010B500F006
:1003C00071F801220721104600F01CF801220621D5
:1003D000104600F017F801220521104600F012F82F
:1003E00001220421104600F00DF8022317220321F8
:1003F000184600F0CDF802230A220021184600F02A
:10040000C7F810BD70B504460B46CE1701EB9676C3
:10041000C6F38700CE1701EB9676B610A1EB8606E1
:10042000B606350E1C4B9B6943F001031A4EB361AF
:100430004FEAB63353F820300F26AE40B343174E81
:1004400046F82030334653F8203004FA05F61E43B0
:10045000124B43F82060124B1B6801268E40334339
:100460000F4E336002F0010343B10D4B0C331B6898
:1004700001268E4033430A4E0C36336002F00203ED
:1004800043B1074B08331E6801238B401E43044BC6
:1004900008331E6070BD00000010024008000140DB
:1004A000000401401E48806940F008001C49886132
:1004B0000846806940F0010088611A48006820F011
:1004C0007040184908600846006840F00040086025
:1004D0000846006820F0704008600846006840F058
:1004E000004008600846006820F070400860084638
:1004F000006840F0004008600846006820F0704046
:1005000008600846006840F00040086005480C306C
:10051000006840F0F00003490C31086070470000AB
:1005200000100240000C014000B500201549086190
:10053000C8601420486100208861C86108460068CE
:1005400040F001000860084640680F4908400D4926
:100550004860084600680D4908400A490860084696
:10056000006820F4802008600846406820F4FE00FF
:1005700048600020886000214FF0006000F058F8CB
:1005800000BD0000001002400000FFF8FFFFF6FE73
:100590002DE9F0410746884614461D46284600F0DE
:1005A00033F8C5F1040007FA00F60F20284100EAED
:1005B0000800064306F00F06E21704EBD262521160
:1005C000920002F1E022D2F800212146E31704EB69
:1005D000D3635B11A4EB431C012303FA0CF31A430E
:1005E0002046E31704EBD3635B119B0003F1E02388
:1005F000C3F800210348005D40EA06100149085590
:10060000BDE8F08100E400E00146072323EA01028F
:100610001202054B18684FF6FF031840034B1843AE
:100620001043014B186070470CED00E00000FA0524
:10063000024A0A400243024B1A60704780FFFF1FC4
:1006400008ED00E030B504460025FFF76DFF1F48B8
:10065000006840F480301D49086000BF1B480068F6
:10066000400C0028FAD04FF4806018494860A01E62
:10067000C4B20846406840EA844048600846406882
:1006800040F4803048601248006840F03200104961
:1006900008600E48006840F080700C49086000BF98
:1006A0000A480068400E0028FAD00848406840F028
:1006B00002000649486005E004484068C0F3870529
:1006C00005F00305022DF7D130BD000000100240F7
:1006D000002002404FF08040008A00F0010010B17D
:1006E0000120054908704FF08040008A20F0010089
:1006F0004FF08041088270472600002070B5054603
:100700000C460A48C06940F001000849C8618804E5
:1007100085850485808940F0010089048881022351
:100720001C2200210120FFF733FF70BD00100240A2
:100730001D49098801F0200111B31B49091D0988D1
:10074000C8B21A49098801F40041C9B91749098892
:1007500001F4804161B10A2803D00021134A1180BD
:1007600020E01249098841F40041104A118019E043
:100770000D2806D10D49098841F480410B4A1180AA
:1007800010E00A490988C1F30D01094A505407498C
:100790000988491C054A118011460988C72901DDCD
:1007A000002111807047000000380140080000203F
:1007B0002C000020014600BF704700004FF0E021F0
:1007C000096921F004014FF0E0221161C21700EB2A
:1007D0005272C2F3C702074B1A701946097801EB2F
:1007E0004102C2EBC1114FF6FF7202EAC101024A97
:1007F00011807047000000200200002001460D4AD1
:1008000012884A434FF0E0235A6100229A61012284
:100810001A6100BF4FF0E022106900F001021AB126
:1008200000F48032002AF5D000224FF0E0231A6154
:100830009A6170470200002001460D4A12784A432F
:100840004FF0E0235A6100229A6101221A6100BF31
:100850004FF0E022106900F001021AB100F480327A
:10086000002AF5D000224FF0E0231A619A61704708
:10087000000000202448806940F008002249886177
:100880000846806940F0040088610846806940F0AD
:10089000100088611D48006820F00F001B490860A7
:1008A0000846006840F0030008600846006820F031
:1008B000F00008600846006840F030000860144806
:1008C000006820F07040124908600846006840F057
:1008D000405008600D48001D006820F470200B494E
:1008E000091D08600846006840F440300860094867
:1008F000406820F47000074948600846406840F4AA
:10090000401048607047000000100240000C014099
:1009100000080140001001400920FFF793FE482025
:10092000FFF74CFFFFF7A6FFFFF748FD41F61F4119
:1009300042F20F70FFF7E2FE00202149087001200B
:100940002049086000202049C1F89C011D49303928
:1009500008601E49C1F8840131E019480078012877
:100960002DD1002016490870012019490860002087
:100970001649C1F8800113492C39086040F2DC5057
:10098000FFF75AFF00201249086001200D49303955
:10099000086040F2DC50FFF74FFF00200949303972
:1009A000086001200949C1F8840140F2DC50FFF7DA
:1009B00043FF012006490860024930390860CCE74E
:1009C00026000020B0812142000021420080214207
:1009D0009C012142F4090008000000202C000000C6
:1009E00028010008200A00082C0000202C07000025
:1009F00044010008000000000000000000000000AA
:100A000000000000000000000000000000000000E6
:100A100000000000000000000000000000000000D6
:04000005080000ED02
:00000001FF
